:100000000C94FC020C940E030C940E030C940E033F
:100010000C940E030C9461030C940E030C940E03C9
:100020000C940E030C940E030C94BA030C940E0360
:100030000C940E030C940E030C940E030C940E03FC
:100040000C940E030C940E030C940E030C940E03EC
:100050000C940E030C94FB040C940E030C940E03EE
:100060000C940E030C940E030000DD0800E1110057
:10007000E51900E82100EC2A00EF3200F13A00F423
:100080004200F64A00F85200FA5A00FC6200FD698C
:1000900000FE7100FE7800FF8000FF8700FF8E00E9
:1000A000FE9500FE9B00FDA200FCA800FAAE00F841
:1000B000B400F6BA00F4C000F1C500EFCA00ECCFFE
:1000C00000E8D400E5D900E1DD00DDE100D9E5007C
:1000D000D4E800CFEC00CAEF00C5F100C0F400BACC
:1000E000F600B4F800AEFA00A8FC00A2FD009BFEEA
:1000F0000095FE008EFF0087FF007FFF0078FE0066
:1001000071FE0069FD0062FC005AFA0052F8004AD4
:10011000F60042F4003AF10032EF002AEC0021E848
:100120000019E50011E10008DD0000E10800E5111B
:1001300000E81900EC2100EF2A00F13200F43A0047
:10014000F64200F84A00FA5200FC5A00FD6200FE36
:100150006900FE7100FF7800FF7F00FF8700FE8EC0
:1001600000FE9500FD9B00FCA200FAA800F8AE007E
:10017000F6B400F4BA00F1C000EFC500ECCA00E824
:10018000CF00E5D400E1D900DDDD00D9E100D4E500
:1001900000CFE800CAEC00C5EF00C0F100BAF400DF
:1001A000B4F600AEF800A8FA00A2FC009BFD009592
:1001B000FE008EFE0087FF0080FF0078FF0071FECA
:1001C0000069FE0062FD005AFC0052FA004AF80085
:1001D00042F6003AF40032F1002AEF0021EC001957
:1001E000E80011E50008E10000DD0000E10800E59D
:1001F0001100E81900EC2100EF2A00F13200F43A76
:1002000000F64200F84A00FA5200FC5A00FD620073
:10021000FE6900FE7100FF7800FF8000FF8700FE8E
:100220008E00FE9500FD9B00FCA200FAA800F8AE2F
:1002300000F6B400F4BA00F1C000EFC500ECCA004B
:10024000E8CF00E5D400E1D900DDDD00D9E100D43C
:10025000E500CFE800CAEC00C5EF00C0F100BAF439
:1002600000B4F600AEF800A8FA00A2FC009BFD0066
:1002700095FE008EFE0087FF0080FF0078FF007172
:10028000FE0069FE0062FD005AFC0052FA004AF8C6
:100290000042F6003AF40032F1002AEF0021EC00AF
:1002A00019E80011E50008E1000000200010AA0A8A
:1002B000000866065505920400048E033303E80225
:1002C000AA027602490222020002E101C701AF013F
:1002D0009901860174016401550147013B012F0119
:1002E00024011A01110108010001F800F000EA00E0
:1002F000E300DD00D700D200CC00C700C300BE0081
:10030000BA00B600B200AE00AA00A700A300A00089
:100310009D009A009700940092008F008D008A0043
:10032000880086008400820080007E007C007A00C5
:100330007800760075007300710070006E006D002B
:100340006B006A0069006700660065006300620078
:10035000610060005F005E005D005C005B005A00B1
:1003600059005800570056005500540053005200E1
:100370005100510050004F004E004E004D004C0007
:100380004B004B004A004900490048004700470025
:10039000460046004500440044004300430042003C
:1003A000420041004100400040003F003F003E004D
:1003B0003E003D003D003C003C003B003B003A005D
:1003C0003A003A0039003900380038003800370068
:1003D0003700360036003600350035003500340071
:1003E0003400340033003300330032003200320076
:1003F00031003100310031003000300030002F007A
:100400002F002F002F002E002E002E002E002D007A
:100410002D002D002D002C002C002C002C002B007A
:100420002B002B002B002A002A002A002A002A0079
:100430002900290029002900280028002800280078
:100440002800270027002700270027002700260074
:100450002600260026002600250025002500250070
:10046000250025002400240024002400240024006A
:100470002300230023002300230023002300220065
:10048000220022002200220022002100210021005F
:100490002100210021002100210020002000200057
:1004A00020002000200020000000082004400C0054
:1004B0000208022000480000000000480220020854
:1004C0000C00044008200000FF030602050104FFA1
:1004D0000503010604020000A000200000006000E7
:1004E00080004000000000002000A000000060002C
:1004F0004000800000006E616E00696E6600004082
:100500007A10F35A00A0724E18090010A5D4E80022
:1005100000E87648170000E40B54020000CA9A3B3A
:10052000000000E1F50500008096980000004042C0
:100530000F000000A086010000001027000000004E
:10054000E803000000006400000000000A00000052
:1005500000000100000000002C76D888DC674F08FE
:1005600023DFC1DFAE59E1B1B796E5E3E453C63A04
:10057000E651997696E8E6C28426EB898C9B62ED7B
:10058000407C6FFCEFBC9C9F40F2BAA56FA5F49035
:10059000055A2AF75C936B6CF9676DC11BFCE0E4AC
:1005A0000D47FEF520E6B500D0ED902E0300943502
:1005B00077050080841E080000204E0A000000C855
:1005C0000C333333330F986E12831141EF8D2114A6
:1005D000893BE65516CFFEE6DB18D1844B381BF776
:1005E0007C1D901DA4BBE424203284725E22810015
:1005F000C9F124ECA1E53D2711241FBECFEFD8E0BF
:10060000DEBFCDBF11E0A0E0B1E001C01D92A73078
:10061000B107E1F70E9410030C94E40B0C94000066
:10062000F89480E98AB95A9A21E024BD82E0809347
:1006300080002093B0008FEF90E09093870080932C
:10064000860016BC82E090E0909385008093840041
:1006500094E09093B20025BD81E1809381002093C6
:10066000B10080E280936B0087E080936C009093F0
:100670006D008093680083EE80937C008AEF809306
:100680007A0090937B0083B18CE6809306014A9BAD
:1006900004C080910601806103C0809106018F7EB5
:1006A0008093060180916F00806280936F00789440
:1006B000809100018823E1F38091050110920001EF
:1006C000F7CF1F920F920FB60F9211248F939F9323
:1006D0004A9B04C080910601806103C0809106019D
:1006E0008F7E80930601809106018D7F80930601A5
:1006F000809106018E7F8093060184B1817F84B949
:100700008AB187798AB991EA94BD82EA80938000A0
:100710009093B0001092B30010928900109288005C
:10072000809188009091890087BD8FEF8093B400FD
:100730008FEF90E090938B0080938A0080918A00E5
:1007400090918B0088BD80E286BBB59BFECF8091E7
:1007500006018F7980648093060184B18E6084B92C
:100760008AB188668AB99F918F910F900FBE0F90C2
:100770001F9018951F920F920FB60F9211242F936E
:100780003F934F935F936F937F938F939F93AF9319
:10079000BF93EF93FF93809106018076803209F03A
:1007A00085C080910201909103018E0D9F1D909351
:1007B0000301809302018091020190910301892F2E
:1007C0009927803C910560F080910201909103018E
:1007D0008050904C909303018093020180E4780E46
:1007E0008091020190910301892F9927272D30E0F4
:1007F0002817390730F4972D80E0909303018093F8
:1008000002018091020190910301892F9927FC0137
:10081000EE0FFF1FE80FF91FE859FF4FDF013D9171
:1008200080910601918111962C9184FD02C0522F76
:1008300002C0592F922F399DB0011124472F999D45
:1008400090011124232F599DC0011124892F753047
:1008500010F450E008C07B3F18F057EF4FEF03C093
:10086000572F54504C5F57BD48BD253010F440E021
:1008700008C02B3F18F047EF2FEF03C0422F445022
:100880002C5F4093880020938A00853010F420E08C
:1008900008C08B3F18F027EF8FEF03C0282F24509C
:1008A0008C5F2093B3008093B40021C08091060137
:1008B0008076E9F483E0989EC00111248F3F910572
:1008C00019F010F08FEF90E08093B4008091B400A5
:1008D0008093B3008091B30080938A0080918A0056
:1008E000809388008091880088BD88B587BD80E7A7
:1008F000A81687E1B80620F40894A11CB11C5CC0BE
:1009000080910601816080930601809106018D7FB0
:100910008093060180910601807609F44DC084B170
:10092000817F84B98AB187798AB991EA94BD82EAD4
:10093000809380009093B0001092B4008091B40036
:100940008093B3008091B30080938A0080918A00E5
:10095000809388008091880088BD88B587BD80E23B
:1009600086BBB59BFECF809106018F7980930601EF
:1009700084B18E6084B98AB188668AB98091060193
:10098000E6B184FF03C088EB94E002C088EA94E0FB
:10099000E770F0E0EE0FFF1FE80FF91F84B1817FD1
:1009A00084B98AB187798AB984B19081892B84B955
:1009B0008AB19181892B8AB990910101892F8F5F2A
:1009C00080930101863930F081E0809300019559D0
:1009D00090930101FF91EF91BF91AF919F918F9102
:1009E0007F916F915F914F913F912F910F900FBE2B
:1009F0000F901F9018951F920F920FB60F9211240F
:100A00008F9380917C00833E19F0843E71F406C080
:100A1000809179008093050184EE05C08091790072
:100A20008093040183EE80937C0081E085BB8F91ED
:100A30000F900FBE0F901F901895CF92DF92EF92FC
:100A4000FF920F931F93FC016B018901D90112964C
:100A50001D921D921D921C92159711961C921E922A
:100A600017969C938E93169719967C936E9318976E
:100A70001B965C934E931A978FEF9FE7BF010E94DE
:100A8000D109F90175876487EE24D7FCE094FE2C28
:100A900061E070E08FEF9FE7A70196010E94E409F3
:100AA000D8011E962D933D934D935C9351971F91C2
:100AB0000F91FF90EF90DF90CF900895AF92BF928B
:100AC000CF92DF92EF92FF920F931F93CF93DF931A
:100AD0005B01EA01AC01461B570B2C853D852417B1
:100AE00035072CF43FEFC32E3FE7D32E15C08827E0
:100AF0009927821B930B481759072CF421E0C22E2B
:100B000020E8D22E09C08E819F81489F6001499FB5
:100B1000D00C589FD00C11247A010027F7FC0095C7
:100B2000102F8A819B81AC81BD81E80EF91E0A1FBE
:100B30001B1F8E859F85A889B9898E159F05A007E3
:100B4000B10764F48A839B83AC83BD8391E0E92E73
:100B5000F12C9FEF092F9FE7192F28C02227332759
:100B6000A901281B390B4A0B5B0BE216F30604079D
:100B7000150764F42A833B834C835D838FEFE82E53
:100B80008FEFF82E012D80E8182F10C0EA82FB822B
:100B90000C831D8328853985442737FD4095542FC4
:100BA000C801B7010E94B2097B018C01888199813B
:100BB0008A199B092A853B85A901849F9001859FFD
:100BC000300D949F300D1124B982A882B601882778
:100BD00077FD8095982F442737FD4095542F620F5D
:100BE000731F841F951F6E0D7F1D801F911F20E0B6
:100BF00031E040E050E00E94E409C901DA018130AF
:100C000050E895075FEFA5075FEFB50724F481E093
:100C100090E8AFEFBFEF9C01AD01203080E83807CE
:100C200080E0480780E0580724F02FEF3FE740E0DE
:100C300050E0C901DF91CF911F910F91FF90EF908C
:100C4000DF90CF90BF90AF900895FC011282138285
:100C5000148215820895A1E1B0E0E1E3F6E00C947E
:100C6000FF093C017F876E876A01FC0117821682AB
:100C7000838181FD03C06FEF7FEF6FC39E012F5F04
:100C80003F4F398B288BF3012381EE85FF8523FDB0
:100C9000859123FF8191FF87EE87882309F45AC34A
:100CA000853251F4EE85FF8523FD859123FF8191E7
:100CB000FF87EE87853229F490E0B3010E945A0B3A
:100CC000E2CF982F10E0882499241032B0F49B32A0
:100CD00069F09C3228F4903251F0933271F40BC0D9
:100CE0009D3239F0903349F4116028C012601460CD
:100CF00025C0186023C0106121C017FD2AC0892FAC
:100D000080538A3078F416FF06C0FAE09F9E902C3C
:100D10001124980E13C03AE0839E802C1124880E73
:100D200010620CC09E3221F416FD14C3106406C07C
:100D30009C3611F4106802C0983659F4EE85FF8590
:100D400023FD959123FF9191FF87EE87992309F069
:100D5000BCCF892F8554833020F4812F8061905E31
:100D600007C0892F8556833008F09FC1812F8F7E61
:100D700086FD02C076E0972E6FE3F62EF8229536B8
:100D800019F4F0E4FF2A07C0963619F420E8F22A95
:100D900002C091109A94F7FE0AC03BE3391518F48B
:100DA0005CE3B52E02C0B92CB39427E009C047E03C
:100DB000491520F4BB2447E0942EF7CF292DBB24FE
:100DC000C60104969D878C87F601608171818281BE
:100DD0009381AE014F5F5F4F0B2D0E946C0A6C0137
:100DE0000981202E332400FF04C003FD02C01DE250
:100DF00009C0F1FE02C01BE205C0F2FC02C010E017
:100E000001C010E2C1018C709070892BB9F11123DF
:100E100011F483E001C084E0881510F088240AC032
:100E2000881AF3FC07C080E290E0B3010E945A0BDD
:100E30008A94C9F7112329F0812F90E0B3010E9411
:100E40005A0B23FE03C006EF14E00EC00AEF14E0B5
:100E50000BC0E114F10409F0805290E0B3010E944C
:100E60005A0B0F5F1F4F05C0EF2CFF24F0E1EF225C
:100E7000FF24F8018491882361F714C1F7FE12C0A2
:100E8000BC0C24FE04C08A81813309F4BA941B147B
:100E90001CF0BB24B3942DC0F8E0FB1550F538E0EE
:100EA000B32E27C0F6FC25C0892D90E08C159D053A
:100EB0004CF02CEFC2162FEFD20624F030E8F32AC4
:100EC00001C09A94992049F0E2E0F0E0EC0FFD1F98
:100ED000E90DF11D80818033A1F3F7FE0AC0B92C22
:100EE000B394892D90E0C816D90614F0992401C056
:100EF0009C18F7FC03C025E030E009C01C141D0459
:100F00001CF021E030E003C096012F5F3F4F11231A
:100F100011F02F5F3F4F992029F0892D90E0019625
:100F2000280F391F882D90E02817390714F08824DE
:100F300001C0821A4F2C5524C20189709070892BF0
:100F400039F008C080E290E0B3010E945A0B8A9405
:100F50008820C1F7112329F0812F90E0B3010E946E
:100F60005A0B43FE07C008C080E390E0B3010E9423
:100F70005A0B8A948820C1F7F7FE46C08601D7FE37
:100F800002C000E010E076010894E11CF11CE01AB8
:100F9000F10A41E050E04C0F5D1FE40EF51E260102
:100FA0004B185108892D90E0AA24BB24A81AB90A2D
:100FB0005FEF0F3F150729F48EE290E0B3010E9426
:100FC0005A0BC016D10634F0401651061CF4F70136
:100FD000808101C080E3015010400894E11CF11CA5
:100FE0000A151B052CF090E0B3010E945A0BE0CFCC
:100FF0000C151D0539F49A81963318F4953311F4C4
:1010000024FE81E390E04BC08A81813309F00F7E9A
:1010100090E0B3010E945A0B9920A1F08EE290E07B
:10102000B3010E945A0B12E0E1E0F0E0EC0FFD1F6B
:10103000E10FF11D1F5F808190E0B3010E945A0B08
:101040009A9491F744FC03C085E690E002C085E4E1
:1010500090E0B3010E945A0BD7FC05C0C114D10423
:1010600041F404FF06C0D094C194D108D3948DE21A
:1010700001C08BE290E0B3010E945A0B80E305C0EF
:101080008F5F26EF3FEFC20ED31E3AE0C316D104A6
:10109000BCF790E0B3010E945A0BC601C096B301A1
:1010A0000E945A0BCC84DD8452C1933631F09337C1
:1010B00099F0933509F059C023C0F60180818983E6
:1010C0005E010894A11CB11C22E030E0C20ED31EC8
:1010D00021E0E22EF12C12C0F601A080B18016FDB5
:1010E00003C06FEF7FEF02C0692D70E022E030E0B7
:1010F000C20ED31EC5010E944F0B7C011F7713C087
:10110000F601A080B18016FD03C06FEF7FEF02C033
:10111000692D70E022E030E0C20ED31EC5010E94AE
:10112000440B7C01106813FF07C01BC080E290E0F5
:10113000B3010E945A0B8A94882D90E0E816F906B4
:10114000A8F30FC0F50117FD859117FF81915F018D
:1011500090E0B3010E945A0B81108A940894E10830
:10116000F108E114F10471F7F2C0943611F09936E8
:1011700089F517FF08C0F601208131814281538132
:1011800084E090E00AC0F601808191819C014427AF
:1011900037FD4095542F82E090E0C80ED91E9FE69F
:1011A000F92EF12257FF09C05095409530952195B1
:1011B0003F4F4F4F5F4F90E8F92ACA01B901AE0186
:1011C0004F5F5F4F2AE030E00E94860BE82EE889EF
:1011D000EE1A41C0953721F41F7E2AE030E01CC092
:1011E000197F9F3661F0903720F4983509F0B2C02E
:1011F0000FC0903739F0983709F0ACC004C028E030
:1012000030E00AC0106114FD146020E130E004C039
:1012100014FD166020E132E017FF08C0F60160817E
:1012200071818281938144E050E008C0F6018081A1
:101230009181BC0180E090E042E050E0C40ED51EF8
:10124000AE014F5F5F4F0E94860BE82E5889E51A6A
:101250008FE7F82EF122F6FE0BC08EEFF822E9148C
:1012600038F4F4FE07C0F2FC05C09FEEF92202C07C
:101270001E2D01C0192DF4FE0DC0FE01EE0DF11D55
:101280008081803319F4E9EEFE2208C01F5FF2FE70
:1012900005C003C08F2D867809F01F5F0F2DF3FC6A
:1012A00014C0F0FE0FC0181510F09E2C0BC09E2C21
:1012B000980C911A182D06C080E290E0B3010E94AC
:1012C0005A0B1F5F1815C0F304C0181510F4811ACB
:1012D00001C0882404FF0FC080E390E0B3010E94A6
:1012E0005A0B02FF1DC001FD03C088E790E00EC04D
:1012F00088E590E00BC0802F867891F001FF02C056
:101300008BE201C080E2F7FC8DE290E0B3010E9425
:101310005A0B06C080E390E0B3010E945A0B9A94E6
:10132000E914C0F3EA94E1E0F0E0EC0FFD1FEE0DEC
:10133000F11D808190E0B3010E945A0BEE2091F7DD
:1013400006C080E290E0B3010E945A0B8A94882084
:10135000C1F799CCF30166817781CB016196E2E117
:101360000C941B0A629FD001739FF001829FE00DD5
:10137000F11D649FE00DF11D929FF00D839FF00D14
:10138000749FF00D659FF00D9927729FB00DE11DC0
:10139000F91F639FB00DE11DF91FBD01CF0111249D
:1013A000089597FB092E07260AD077FD04D05ED05A
:1013B00006D000201AF4709561957F4F0895F6F7D6
:1013C000909581959F4F089597FB092E05260ED085
:1013D00057FD04D05FD00AD0001C38F450954095DA
:1013E000309521953F4F4F4F5F4F0895F6F79095F9
:1013F0008095709561957F4F8F4F9F4F08952F92E5
:101400003F924F925F926F927F928F929F92AF9294
:10141000BF92CF92DF92EF92FF920F931F93CF93E1
:10142000DF93CDB7DEB7CA1BDB0B0FB6F894DEBF78
:101430000FBECDBF09942A88398848885F846E849E
:101440007D848C849B84AA84B984C884DF80EE80E8
:10145000FD800C811B81AA81B981CE0FD11D0FB6F1
:10146000F894DEBF0FBECDBFED010895AA1BBB1BD4
:1014700051E107C0AA1FBB1FA617B70710F0A61B94
:10148000B70B881F991F5A95A9F780959095BC01B5
:10149000CD010895A1E21A2EAA1BBB1BFD010DC0B0
:1014A000AA1FBB1FEE1FFF1FA217B307E407F50714
:1014B00020F0A21BB30BE40BF50B661F771F881FF0
:1014C000991F1A9469F760957095809590959B0186
:1014D000AC01BD01CF010895283008F027E0332783
:1014E000DA01990F311D87FD916000966105710544
:1014F00039F432602E5F3D9330E32A95E1F7089589
:101500009F3F30F080387105610509F03C5F3C5F1A
:101510003D93913008F08068911DDF93CF931F9326
:101520000F93FF92EF92192F987F9695E92F96953A
:101530009695E90FFF27E85AFA4F99273327EE24AB
:10154000FF24A701E70105900894079428F4360FBB
:10155000E71EF81E491F511D660F771F881F991F30
:101560000694A1F70590079428F4E70EF81E491F8A
:10157000561FC11D770F881F991F661F0694A1F77C
:101580000590079428F4F80E491F561FC71FD11D58
:10159000880F991F661F771F0694A1F7059007947F
:1015A00020F4490F561FC71FD81F990F661F771FBA
:1015B000881F0694A9F784911095177041F0D6956D
:1015C000C79557954795F794E7941A95C1F7EEEFAD
:1015D000F4E0689415901591359165919591059079
:1015E0007FE27395E118F10A430B560BC90BD00942
:1015F000C0F7E10CF11E431F561FC91FD01D7EF41A
:10160000703311F48A95E6CFE894015030F0080F5A
:101610000AF40027021708F4202F2395022F7A33AB
:1016200028F079E37D932A95E9F710C07D932A95F8
:1016300089F6069497956795379517951794E1184D
:10164000F10A430B560BC90BD00998F023957E91F4
:1016500073957A3308F070E37C932013B8F77E918A
:1016600070617D9330F0839571E37D9370E32A95EB
:10167000E1F71124EF90FF900F911F91CF91DF912F
:10168000992787FD90950895FC0105906150704061
:101690000110D8F7809590958E0F9F1F0895FC013B
:1016A0006150704001900110D8F7809590958E0F91
:1016B0009F1F08950F931F93CF93DF938C01EB012E
:1016C0008B8181FF1BC082FF0DC02E813F818C81E9
:1016D0009D812817390764F4E881F9810193F98322
:1016E000E88306C0E885F985802F0995892B31F4B8
:1016F0008E819F8101969F838E8302C00FEF1FEF23
:10170000C801DF91CF911F910F910895FA01AA2787
:10171000283051F1203181F1E8946F936E7F6E5F34
:101720007F4F8F4F9F4FAF4FB1E03ED0B4E03CD0E2
:10173000670F781F891F9A1FA11D680F791F8A1FC5
:10174000911DA11D6A0F711D811D911DA11D20D02C
:1017500009F468943F912AE0269F11243019305DE6
:101760003193DEF6CF010895462F4770405D4193D7
:10177000B3E00FD0C9F7F6CF462F4F70405D4A3324
:1017800018F0495D31FD4052419302D0A9F7EACFEC
:10179000B4E0A6959795879577956795BA95C9F71B
:1017A00000976105710508959B01AC010A2E06940E
:1017B0005795479537952795BA95C9F7620F731FC7
:0C17C000841F951FA01D0895F894FFCF12
:00000001FF
